:020000040800F2
:100000003052002045010008311F0008331F00084E
:10001000371F00083B1F00083F1F000800000000BA
:10002000000000000000000000000000431F000866
:10003000451F000800000000471F0008491F000876
:100040005F0100085F0100085F0100088D1F0008C4
:100050005F0100085F010008C92000085F01000877
:100060005F0100085F0100085F0100085F010008F0
:100070005F0100085F0100085F0100085F010008E0
:100080005F0100085F0100085F0100085F010008D0
:100090005F0100085F0100085F0100085F010008C0
:1000A0005F0100085F0100085F0100085F010008B0
:1000B0005F0100085F0100085F0100085F010008A0
:1000C0005F0100085F0100085F0100085F01000890
:1000D0005F010008A91F00085F0100082320000835
:1000E000A92000085F0100085F0100085F01000807
:1000F0005F0100085F0100085F0100085F01000860
:100100005F0100085F0100085F0100085F0100084F
:100110005F0100085F0100085F0100085F0100083F
:100120005F0100085F0100085F0100085F0100082F
:10013000DFF80CD005F052FB00480047391C0008DE
:10014000305200200648804706480047FEE7FEE799
:10015000FEE7FEE7FEE7FEE7FEE7FEE7FEE7FEE777
:1001600047020008310100080CB500200190009002
:100170006C48006840F480306A49086000BF6948F4
:10018000006800F4003000900198401C0190009835
:1001900018B90198B0F5A06FF1D16248006800F479
:1001A000003010B10120009001E000200090009884
:1001B000012843D15C48006840F010005A490860AB
:1001C0000846006820F0030008600846006840F018
:1001D0000200086053484068524948600846406839
:1001E00048600846406840F48060486008464068BF
:1001F00020F47C1048600846406840F4E8104860ED
:100200000846006840F08070086000BF45480068FC
:1002100000F000700028F9D04248406820F0030048
:10022000404948600846406840F00200486000BF0E
:100230003C48406800F00C000828F9D10CBD10B50E
:10024000FFF792FF10BD10B53648006840F001007E
:1002500034490860084640683449084031494860DC
:1002600008460068324908402E4908600846006880
:1002700020F4802008600846406820F4FE004860B2
:100280004FF41F008860FFF7DAFF4FF00060294944
:10029000086010BD10B5002100200022214B5B68D2
:1002A00003F00C0121B1042906D0082928D107E068
:1002B000214B224C236027E01F4B204C236023E07E
:1002C000184B5B6803F47010164B5B6803F48032C4
:1002D000022303EB904022B9194B4343174C236090
:1002E0000DE0104B5B6803F4003323B1144B434320
:1002F000124C236003E0104B4343104C236003E097
:100300000D4B0E4C236000BF00BF064B5B68C3F370
:1003100003130C4CE15C094B1B68CB40074C23607A
:1003200010BD000000100240002002400000FFF855
:10033000FFFFF6FE08ED00E000127A00000000204A
:1003400000093D000400002031490143314A116099
:10035000704770B5002100230F22C47804B32D4CE0
:10036000246804F4E064C4F5E064210AC1F10403E4
:10037000CA40447804FA03F1847814402143090107
:10038000254C0678A155047804F01F050124AC40E3
:1003900005786D11AD0005F1E025C5F8004109E0D3
:1003A000047804F01F050124AC401C4D067876113A
:1003B00045F8264070BD1A4A0A400243154B1B1FE0
:1003C0001A60704739B1134A121D12680243114B6B
:1003D0001B1D1A6006E00F4A121D126882430D4B66
:1003E0001B1D1A607047042808D14FF0E0210969ED
:1003F00041F004014FF0E022116107E04FF0E021ED
:10040000096921F004014FF0E022116170470000FA
:100410000000FA050CED00E000E400E080E100E0FF
:1004200080FFFF1F10B5012000F0A8FF002000F0A2
:10043000A5FF10BD2A49086070472949091F0860B7
:100440007047274984310860704701460020254ADB
:1004500010884FF67F4210400843224A10807047B0
:10046000014600201F4A10884FF680721040084352
:100470001C4A1080704708B500220092194A2C3A95
:100480000092009A02440092009A116008BD08B5DB
:1004900001460020009013482C3800900098084432
:1004A00000900098008808BD0D489C300068C0B2DC
:1004B00070470C480830008840F0010009490831B5
:1004C000088070470648A0300068C0B270470548F1
:1004D0000830008840F00200024908310880704767
:1004E00004860D422C6C0040002044490860091D20
:1004F0000860091D0860091D086041483F49143122
:100500000860704700213D498279002A3AD00A46A6
:10051000126803689A430B461A600A1D1268036842
:100520009A430B1D1A60027911440A6803681A4342
:100530000A60324A0832126803689A432F4B083324
:100540001A601A1D126803689A432C4B0C331A6008
:100550004279102A0ED11A1F126803681A43274BDA
:1005600008331A601A1D126803681A43234B0C33B0
:100570001A600DE02149427911440A6803681A4360
:100580000A6005E0027911440A6803689A430A6028
:1005900070470021016001710C21417100218171BE
:1005A00070471649103109680143144A103211602E
:1005B000704701460020114A143212680A400AB1FD
:1005C000012000E0002070470C491431086070479A
:1005D000014600200022094B1B6803EA0102074B79
:1005E00014331B680B4013B10AB1012000E0002056
:1005F0007047024914310860704700000004014050
:10060000FFFF0F0030B943F2DB028100A1F1C041CE
:100610000A6005E043F2D2028100A1F1C0410A6004
:100620006FF07042411C8900A1F1C0410A60810055
:10063000A1F1C041C1F80421704710280AD1182146
:100640004FF020421166402151664FF0FC31916617
:10065000D16610E01821F74A116040214FF0204286
:10066000C2F884104FF0FC31F24A083211604FF0AA
:100670002042C2F88C1070471820EE4920310860E3
:1006800000200906C1F8A4004FF0FC30E9492831E8
:100690000860091D0860091D08607047D0E9011253
:1006A0001143C268114302691143426911438269CF
:1006B0001143C2691143026A1143426A1143826ABB
:1006C0001143C26A1143026B114302689200A2F106
:1006D000C0421160816808290BD101688900A1F12D
:1006E000C041096841F0400201688900A1F1C041A0
:1006F0000A60416B0968426B526841EA0211426B21
:10070000926841EA0221426B928941EA0241426BBE
:10071000128A41EA0251426B127D41EA0261426B48
:10072000926911430268521C9200A2F1C04211600A
:10073000C16AB1F5804F1BD1816B0968826B526829
:1007400041EA0211826B926841EA0221826B128AAD
:1007500041EA0251826B127D41EA0261826B926929
:10076000114302689200A2F1C042C2F8041107E0EE
:100770006FF0704201688900A1F1C041C1F8042105
:10078000704730B5002100220023446844F008047B
:1007900085682C43C5682C4305692C43456944EAA8
:1007A0004524856944EA4531C4692468C5696D6892
:1007B00044EA0524C5692D8944EA0544C5692D7BB1
:1007C00044EA0562046A2468056A6D6844EA0524FF
:1007D000056A2D8944EA0544056A2D7B44EA0563D0
:1007E0000468102C05D14FF020442166A266E36610
:1007F00008E0904C21604FF02044C4F888208D4CD4
:100800000C34236030BD016841F01001426841EAB8
:100810004221826841EA4231864A20321160C16831
:100820000968C268526841EA0221C268128941EA35
:100830000241C268127B41EA02617E4A283211609D
:10084000016909680269526841EA02210269128954
:1008500041EA02410269127B41EA0261754A2C3287
:100860001160416909684269526841EA022142699E
:10087000128941EA02414269127B41EA02614FF06A
:100880002042C2F8B010704700210160022141608F
:1008900000218160C160016141618161C1610162CA
:1008A0004FF480514162490081620021C1620163BD
:1008B0000F21426B1160426B5160FF21426B9160CE
:1008C0000F21426BD160426B1161426B516100217B
:1008D000426B91610F21826B1160826B5160FF212D
:1008E000826B91600F21826BD160826B1161826B90
:1008F00051610021826B91617047102101600021DC
:1009000041608160C160016141618161FC21C26916
:100910001160C2695160C2699160C269D160026AA6
:100920001160026A5160026A9160026AD160704788
:100930000021016041608160FC21C2681160C268D1
:100940005160C2689160C268D16002691160026939
:100950005160026991600269D16042691160426927
:100960005160426991604269D160704751B1820023
:10097000A2F1C042126842F001038200A2F1C0421B
:10098000136009E08200A2F1C04212682A4B1A40AB
:100990008300A3F1C0431A60704799B1102808D1B1
:1009A0004FF02042126E42F004024FF020431A66CC
:1009B0001DE0204A126842F004024FF02043C3F8C1
:1009C000802014E0102809D14FF02042126E1A4BFB
:1009D000DB1E1A404FF020431A6608E0154A1268E1
:1009E000154BDB1E1A404FF02043C3F880207047A0
:1009F00048B110492031096841F004014FF020420C
:100A0000C2F8A01009E00B49203109680A4AD21E39
:100A100011404FF02042C2F8A0107047B9B1102821
:100A20000CD14FF02042126E42F040024FF02043B2
:100A30001A661FE0800000A0FEFF0F00724A1268D5
:100A400042F040024FF02043C3F8802012E010280B
:100A500008D14FF02042126E6C4B1A404FF02043E9
:100A60001A6607E0684A1268684B1A404FF0204344
:100A7000C3F88020704701460020102903D14FF0B1
:100A80002042506F02E0604A14321068704710B57F
:100A9000F2B1102807D14FF020435B6E0B434FF0AB
:100AA0002044636632E0B0F5807F08D1564B1B1DB1
:100AB0001B680B434FF02044C4F8843026E0524BAF
:100AC00024331B680B434FF02044C4F8A4301DE0CE
:100AD000102807D14FF020435B6E8B434FF020442A
:100AE000636613E0B0F5807F08D1474B1B1D1B6880
:100AF0008B434FF02044C4F8843007E0424B24334A
:100B00001B688B434FF02044C4F8A43010BD10B5CF
:100B1000024600200023102A03D14FF02044636EC8
:100B200009E0B2F5807F03D1374C241D236802E031
:100B3000354C2434236803EA01040CB1012000E0A1
:100B4000002010BD102807D14FF02042526E8A437A
:100B50004FF020435A6613E0B0F5807F08D12A4A4F
:100B6000121D12688A434FF02043C3F8842007E027
:100B7000254A243212688A434FF02043C3F8A42048
:100B8000704770B502460020002300240025102A7B
:100B900003D14FF02046736E09E0B2F5807F03D198
:100BA000194E361D336802E0174E2436336803EAC7
:100BB000010403EAD10514B10DB1012000E00020C9
:100BC00070BD102808D14FF02042526E22EAD102A7
:100BD0004FF020435A6615E0B0F5807F09D10A4AEC
:100BE000121D126822EAD1024FF02043C3F884207C
:100BF00008E0054A2432126822EAD1024FF020436D
:100C0000C3F8A42070470000800000A0BFFF0F00C1
:100C100010B50446CC48844208D10121042000F0DC
:100C200093FB0021042000F08FFB46E0C74884427C
:100C300008D10121082000F087FB0021082000F0E6
:100C400083FB3AE0C248844208D10121102000F021
:100C50007BFB0021102000F077FB2EE0BD48844292
:100C600008D10121202000F06FFB0021202000F09E
:100C70006BFB22E0B848844208D10121402000F0FB
:100C800063FB0021402000F05FFB16E0B348844284
:100C900008D10121802000F057FB0021802000F0C6
:100CA00053FB0AE0AE48844207D10121801500F0D1
:100CB0004BFB0021A01500F047FB10BD10B5012132
:100CC000084600F041FB0021012000F03DFB10BD73
:100CD0002DE9F041024600250026002000230024D3
:100CE000002791F803C00CF00F0591F803C00CF039
:100CF000100CBCF1000F03D091F802C04CEA0505BE
:100D000091F800C0BCF1000F31D0146800202BE036
:100D10004FF0010C0CFA00F3B1F800C00CEA030626
:100D20009E4220D183004FF00F0C0CFA03F7BC4316
:100D300005FA03FC4CEA040491F803C0BCF1280F47
:100D400006D14FF0010C0CFA00FCC2F814C00AE006
:100D500091F803C0BCF1480F05D14FF0010C0CFA1B
:100D600000FCC2F810C0401C0828D1D31460B1F8B0
:100D700000C0BCF1FF0F34DD546800202EE000F10C
:100D8000080C4FF0010808FA0CF3B1F800C00CEAA7
:100D900003069E4221D183004FF00F0C0CFA03F79B
:100DA000BC4305FA03FC4CEA040491F803C0BCF10F
:100DB000280F05D100F1080C08FA0CF8C2F81480CD
:100DC00091F803C0BCF1480F07D100F1080C4FF0B7
:100DD000010808FA0CF8C2F81080401C0828CED38D
:100DE0005460BDE8F0814FF6FF71018002218170EF
:100DF0000421C17070470246002093680B400BB17C
:100E0000012000E0002070470146886880B27047EA
:100E100002460020D3680B400BB1012000E0002007
:100E200070470146C86880B27047016170474161F0
:100E300070470AB1016100E041617047C1607047CD
:100E40004FF480320A4382618161826182698269E2
:100E5000704702460020434B18684FF680731840D5
:100E600040EA021008433F4B186070473E49C86192
:100E70007047F0B50A46002300240021002500F049
:100E80000046B6F1004F02D1364EF16901E0354E11
:100E90007168C0F3034583B200F44016B6F5401FF5
:100EA00008D121F070612F4E766826F070662D4FC4
:100EB0007E6012E000F48016B6F5801F06D103268E
:100EC00006FA05F4A14341F0706106E0460D3601D3
:100ED00003FA06F6B14341F0706122B1460D3601C6
:100EE00003FA06F6314300F00046B6F1004F02D196
:100EF0001C4EF16101E01B4E7160F0BD30B5002267
:100F00008B071C0F0F2303FA04F2164B08338C10C7
:100F100053F824309343134C08348D1044F8253093
:100F200023468C1053F824308C07240F00FA04F465
:100F300023430C4C08348D1044F8253030BD0A4949
:100F4000DC3108607047000000080140000C0140DF
:100F5000001001400014014000180140001C014035
:100F600000200140000001400000204210B5012196
:100F7000080700F0F6F900214FF0805000F0F1F979
:100F800010BD2A4908627047284908617047014628
:100F90000020274A106820F0E000084310607047E6
:100FA0002249A0310860704710B502460020204B4E
:100FB000186820F00300104318601E4B1B6843F0B4
:100FC00004031C4C2360012901D130BF00E020BF85
:100FD000184B1B6823F00403164C236010BD144803
:100FE000006840F00400124908600846006840F0BC
:100FF000020008600F48006840F004000D490860D6
:1010000000BF00BF30BF704701460020084A526849
:101010000A400AB1012000E0002070470449096835
:1010200041EA8001024A11607047000000000E4250
:101030000070004010ED00E0DF48006840F0010063
:10104000DD49086008464068DC490840DA494860E4
:1010500008460068DA490840D74908600846006831
:1010600020F4802008600846406820F4FE004860B4
:101070004FF41F0088607047CF49096821F4803120
:10108000CD4A11601146096821F480211160B0F544
:10109000803F03D0B0F5802F0ED106E0C649096825
:1010A00041F48031C44A116007E0C349096841F442
:1010B000A021C14A116000E000BF00BF704710B519
:1010C00001460022002300204A11012A02D1BA4C15
:1010D000236806E0022A02D1B74C236A01E0B64C2D
:1010E000636A01F01F02012494401C400CB10120EE
:1010F00000E0002010BD38B500200090002400253D
:1011000000BF3120FFF7DBFF05460098401C009030
:101110000098B0F5A06F01D0002DF2D03120FFF77C
:10112000CEFF08B1012400E00024204638BD01466E
:101130000020A14A106820F0F80040EAC1001060C9
:101140007047A04908607047024600209A4B5868D3
:1011500020F47C1042EA01031843974B5860704713
:1011600098490866704701460020934A506820F06D
:1011700003000843506070478F48406800F00C003F
:101180007047014600208C4A506820F0F000084368
:101190005060704701460020874A506820F4E060A4
:1011A00008435060704701460020834A506820F48D
:1011B000605040EAC1005060704729B17E4A527ABF
:1011C00002437D4B5A7204E07B4A527A82437A4B47
:1011D0005A7270477B49D831086070470146002039
:1011E000754A506820F44040084350607047002121
:1011F000714A20321170704A82F82010012802D002
:1012000004280AD104E001216B4A2032117005E064
:101210000521694A2032117000E000BF00BF70470D
:101220006949086070476449096A0143624A11626A
:101230007047654944390860704730B50021002285
:10124000002400235C4D6D6805F00C0121B10429D8
:1012500005D0082923D105E05C4D056022E05B4DF7
:1012600005601FE0544D6D6805F47012524D6D68B5
:1012700005F48034022505EB92421CB9544D5543C8
:1012800005600BE04C4D6D6805F400351DB1504D07
:101290005543056002E04D4D5543056002E04B4D5E
:1012A000056000BF00BF444D6D6805F0F0010909FD
:1012B000484D6B5C0568DD4045603F4D6D6805F449
:1012C000E061090A434D6B5C4568DD4085603A4D3D
:1012D0006D6805F46051C90A3E4D6B5C4568DD40A0
:1012E000C560354D6D6805F44041890B3A4D6B5C26
:1012F000C568B5FBF3F5056130BD29B12E4A5269C9
:1013000002432D4B5A6104E02B4A526982432A4B17
:101310005A61704729B1284A92690243264B9A6163
:1013200004E0254A92698243234B9A61704729B1B0
:10133000214AD2690243204BDA6104E01E4AD26995
:1013400082431D4BDA61704729B11B4AD2680243C0
:10135000194BDA6004E0184AD2688243164BDA600F
:10136000704729B1144A12690243134B1A6104E011
:10137000114A12698243104B1A6170471249403971
:10138000086070470F49C86470470B49C8717047BF
:101390000948406A40F0807007494862704701463A
:1013A0000020054A92680A400AB1012000E00020AE
:1013B0007047014988727047001002400000FFF832
:1013C000FFFFF6FE000042428004424200127A0013
:1013D00000093D00140000202400002029B1504ADB
:1013E000128802434E4B1A8004E04D4A1288824311
:1013F0004B4B1A8070474A48001D008840F010008F
:101400004749091D088070474548001D00884FF670
:10141000EF7108404249091D08807047002140488B
:101420001C300188001F008841EA0040704700B569
:101430000246FFF7E0FF100C394918310880091DFA
:101440000A80FFF7E1FF00BD00B50246FFF7D3FFBA
:10145000C2F30340324908310880091D0A80FFF7B2
:10146000D3FF00BD00B50246FFF7C5FF100C2C49A5
:1014700020310880091D0A80FFF7C6FF00BD00204B
:101480002749103109880907080B254914310988B3
:101490000843704700BF2248001D008800F020006C
:1014A0000028F8D070471E48001D00884FF6F771DD
:1014B00008401B49091D088000BF1948001D00880D
:1014C00000F008000028F8D0704701460020144AB8
:1014D000121D12880A400AB1012000E00020704766
:1014E0000F49091D098881430D4A121D118070475B
:1014F000014600200A4A121D12880A40D0B2084A4A
:1015000012880A4012B108B1012000E000207047A3
:101510000349091D09888143014A121D1180704742
:101520000028004010B50446BE48844208D101217D
:101530008014FFF709FF0021A014FFF705FF16E054
:10154000B948844208D101210014FFF70AFF0021A5
:101550002014FFF706FF0AE0B448844207D10121B6
:10156000C013FFF7FEFE0021E013FFF7FAFE10BDE7
:1015700010B50022028802F441520B884C882343A4
:101580008C882343CC8823430C8923434C892343F1
:101590008C892343CC8923431A430280838B4FF2E7
:1015A000FF74234083830B8A038210BD2DE9F04F23
:1015B00085B005460C464FF0000902274FF00008A1
:1015C0004FF0010B0026B246A88B4FF240010840B5
:1015D000A88302202884B5F81C90A068022801D1B5
:1015E00000BF38E0A08810B94FF0010B01E04FF0C8
:1015F000020B8D48854200D100E000BF6846FFF72E
:101600001CFEDDF800A0E088B0F5007F0AD14FEAAB
:101610001A2000EB80004000A168B0FBF1F0401DF3
:1016200086B20BE04FEA4B10BAFBF0F000EB800003
:101630004000A168B0FBF1F0401D86B20A20B6FB65
:10164000F0F606F00108A6EB0800C0F34F074FF6CE
:10165000FF7000EA0828022F01DBFF2F02DD0227BE
:101660004FF00008E08840EA080038432884A0884A
:10167000A1890843618808432188084340F4006039
:1016800040EA0909A5F81C9005B0BDE8F08F0021DB
:10169000018041808180C180018141818181C1813E
:1016A0000721018270470021018041808180C18033
:1016B0000221816000218181704721B1028842F0BE
:1016C0004002028004E002884FF6BF731A40028095
:1016D000704721B1828B42F48062828304E0828B66
:1016E0004FF6FF331A408283704730B50024002341
:1016F0000C110125A540ABB21AB185881D43858028
:1017000002E085889D43858030BD1AB183880B43F4
:10171000838002E083888B43838070478181704798
:101720000146888970474FF6FF62914204D00288D3
:1017300042F48072028004E002884FF6FF631A4090
:101740000280704721B1828842F00402828004E066
:1017500082884FF6FB731A408280704702884FF2EE
:10176000FF731A40028002880A4302807047018892
:1017700041F480510180704721B1028842F4005247
:10178000028004E002884DF6FF731A400280704721
:1017900002460020012901D0108B00E0908A70479A
:1017A0000146088A7047B1F5804F04D1028842F49F
:1017B0008042028004E002884BF6FF731A400280E8
:1017C00070470246002013890B400BB1012000E056
:1017D00000207047CA4302817047F0B502460020DE
:1017E00000240023002501F00F070126BE40B4B2FB
:1017F0000B1101269E40B3B2968806EA03051689AE
:10180000264016B10DB1012000E00020F0BD10B55A
:10181000002201F00F040123A3409AB2D3430381B5
:1018200010BD00000030014000380040003C004086
:1018300010B50446FB48844209D101218803FFF713
:1018400083FD00214FF48040FFF77EFD32E0F64833
:10185000844209D101214804FFF783FD00214FF4A0
:101860000030FFF77EFD25E0F048844209D10121D8
:101870008804FFF776FD00214FF48020FFF771FD0B
:1018800018E0EB48844209D10121C804FFF769FD43
:1018900000214FF40020FFF764FD0BE0E54884428F
:1018A00008D101210805FFF75CFD00214FF48010ED
:1018B000FFF757FD10BD2DE9F04786B005460E46EF
:1018C0000024A24600BFA1460027B08900B100BF96
:1018D0002F462C8A4CF6FF700440F08804432C827B
:1018E000AC894EF6F3100440B08831890843718901
:1018F00008430443AC81AC8A4FF6FF400440B089F2
:101900000443AC8201A8FFF798FCC648874202D185
:10191000DDF810A001E0DDF80CA0A88900F400407B
:1019200040B10AEBCA0000EB0A1031684900B0FB75
:10193000F1F807E00AEBCA0000EB0A1031688900F1
:10194000B0FBF1F86420B8FBF0F004012009642139
:1019500001FB1089A88900F4004040B1322000EB5F
:10196000C900B0FBF1F000F00700044308E03220AA
:1019700000EB09106421B0FBF1F000F00F0004430C
:101980002C8106B0BDE8F0874FF4165101600021AC
:101990008180C18001810C214181002181817047BA
:1019A00010B502460020108A4FF2FF0318400B8842
:1019B0004C8823438C882343CC88234318431082CC
:1019C00010BD0021018041808180C180704721B11C
:1019D000828942F40052828104E082894DF6FF73CD
:1019E0001A4082817047F0B5034600240026002586
:1019F000002040F66A17B94200D100BF1846C1F373
:101A0000421401F01F06012707FA06F5012C01D147
:101A10000C3004E0022C01D1103000E014301AB177
:101A200007682F43076002E00768AF430760F0BD17
:101A30001AB1838A0B43838202E0838A8B438382B9
:101A40007047028A4FF6F0731A400282028A0A43F4
:101A50000282704782894FF2FF731A408281828925
:101A60000A438281704721B1828942F00202828159
:101A700004E082894FF6FD731A4082817047028A22
:101A80004FF6DF731A400282028A0A4302827047CD
:101A900021B1028A42F48042028204E0028A4BF6BB
:101AA000FF731A4002827047C1F3080282807047B8
:101AB00001468888C0F308007047818941F0010120
:101AC00081817047028BD2B20283028B42EA0122EB
:101AD00002837047028B02F47F420283028B0A4327
:101AE0000283704721B1828A42F02002828204E0A0
:101AF000828A4FF6DF731A408282704721B1828A50
:101B000042F01002828204E0828A4FF6EF731A409C
:101B10008282704721B1828A42F00802828204E008
:101B2000828A4FF6F7731A408282704721B1828908
:101B300042F40042828103E08289C2F30E02828174
:101B4000704721B1828A42F40062828204E0828A74
:101B50004FF2FF731A4082827047828A4FF6FB73FE
:101B60001A408282828A0A438282704721B1828A25
:101B700042F00202828204E0828A4FF6FD731A402C
:101B80008282704702460020B1F5007F00D100BF7D
:101B900013880B400BB1012000E00020704701F4D6
:101BA0000072B2F5007F00D100BFCA4302807047C7
:101BB00070B50246002400230025002040F66A1676
:101BC000B14200D100BFC1F3421501F01F0301264D
:101BD00006FA03F3012D02D19689334006E0022D67
:101BE00002D1168A334001E0968A33400C12012656
:101BF00006FA04F41688344013B10CB1012000E059
:101C0000002070BD10B50022002340F66A14A142E6
:101C100000D100BF0A1201249440A3B2DC43048027
:101C200010BD000000380140004400400048004062
:101C3000004C0040005000400EB500F0B8FF0620F8
:101C400000F03EFF4FF4A073F0220021084601F09F
:101C500009F800F06DFA00F09BFA4FF0E0200069FF
:101C600040F001004FF0E021086100F061FA00F05F
:101C700083FC00F059FC00F00AFB02F092F902F03C
:101C80008BF802F035F903F034F802F047FE02F069
:101C9000CFF902F0A3FD02F0D5FA774802F027FB56
:101CA00000F019FB60B975A003F094FF20207B4978
:101CB00008600120091F08600220086000BFFEE7DD
:101CC000D9E001F064FD002475A1204601F08FFAEF
:101CD00077480068012808D1FFF7A0FB0446664951
:101CE00002F02DFC00207249086001A802F0AAF859
:101CF00001283ED101F04BFDC08800EB40004004BC
:101D0000040C6CA1204601F072FA9DF807309DF892
:101D100006206BA16E4803F06DFF01F038FDC0880E
:101D2000C0EBC00084B2204601F046FD01F02FFD5B
:101D3000C088C0EBC00084B26549204601F057FA64
:101D40009DF805309DF8042062A1614803F052FF20
:101D500001F01DFDC088C004040C204601F02CFDDC
:101D600001F015FDC088C004040C5949204601F05B
:101D70003EFA9DF806005C49097888421CDB4FF466
:101D800080715A48FFF751F84FF4784001F00EFD8A
:101D90002020424908600120091F086002200860D5
:101DA00001F0F5FCC088C0EBC0004004040C50A159
:101DB000204601F01CFA07E04FF480714B48FFF712
:101DC00036F8002001F0F2FC4D48006800284AD0A7
:101DD00001F0DDFCC08800EB80004004040C49A148
:101DE000204601F004FA4948B0F904000090474841
:101DF000B0F90230B0F9002045A1484803F0FAFEDE
:101E000001F0C5FCC08800EB400101EBC00084B2CA
:101E10004249204601F0EBF901F0B9FCC08800EB23
:101E200040008004040C3EA1204601F0E0F93E4849
:101E3000B0F9040000903C48B0F90230B0F900203D
:101E400033A1364803F0D6FE01F0A1FCC08800EBB8
:101E5000800101EBC00084B23049204601F0C7F98F
:101E60000020274908603148006820B102F09CFD3D
:101E700000202E49086024E7340000200D0AC3BB6F
:101E8000D3D0BCECB2E2B5BD4D505536303530B490
:101E9000ABB8D0C6F7A3A10D0A000000140C014096
:101EA0002020515554D6C7C4DCCAD6BBB7000000A9
:101EB000C400002020CEC2CAAAB6C8CFD4CABE0071
:101EC00020CEC2B6C8203A2025642E25642000000A
:101ED0007C01002020CAAAB6C8203A2025642E25FD
:101EE000642525200000000060000020000801405B
:101EF00020B3ACB3F6D4A4BEAFCEC2B6C8A3A10083
:101F00005C00002020BCD3CBD9B6C800280000203C
:101F1000253864253864253864000000E00100207D
:101F200020BDC7CBD9B6C8002E0000205800002025
:101F3000704700BFFEE700BFFEE700BFFEE700BF3F
:101F4000FEE770477047704710B5002407E06A4805
:101F500050F82400401C684941F82400641C022CFD
:101F6000F5DB65480068B0F5FA7F0ED300206249C2
:101F700008606248006840B9614800F0C4F96148EF
:101F800000F0E1F901205D49086010BD10B50120A5
:101F9000FFF7AEFA38B10120FFF7BAFA01205A492B
:101FA0000860FFF777FA10BD70B540F22551574829
:101FB000FFF7FEFDF8B15548FFF77AFDC5B253486B
:101FC000FFF776FDC4B25248B0F80004C0F30E002B
:101FD00040F2FF3188420EDA4D49B1F80014C1F3E6
:101FE0000E00411C4A4AB2F8002461F30E0248492F
:101FF000A1F800240C5440F224414448FFF7D8FDD6
:1020000001280DD14248B0F8000420F4004000F54A
:1020100000403F49A1F800043C48FFF749FDC4B225
:1020200070BD10B540F225513A48FFF7C1FDD8B157
:102030003848FFF73DFDC4B23748B0F80004C0F39C
:102040000E0040F2FF3188420EDA3349B1F8001435
:10205000C1F30E00411C304AB2F8002461F30E02B5
:102060002D49A1F800240C5440F224412948FFF7DF
:102070009FFD012817D12848B0F8000420F4004043
:1020800000F500402449A1F800042248FFF710FDA4
:10209000C4B222A1204803F0ABFA08B1012000E04D
:1020A00000202149087010BD10B54FF40050FEF714
:1020B0008FFA40B11D48006880F001001B4908609C
:1020C0004814FEF796FA10BD00B587B00120FEF760
:1020D0007FFA70B1684602F050F9684602F0F3F8F2
:1020E0004AF2A5510420FEF7C6F90120FEF781FA55
:1020F00000BF07B000BD0000500000205C000020C1
:10210000280000202E000020C400002000380140DC
:10211000284A00200048004026460020434C4F53E8
:1021200045440D0A00000000090100200C0C01408C
:1021300008B501210820FFF7EDF82020ADF80000D8
:1021400010208DF8030003208DF8020069460F4827
:10215000FEF7BEFD0120ADF8000069460B48FEF712
:10216000B7FD0220ADF8000069460848FEF7B0FD53
:1021700020210648FEF759FE01210448FEF755FECE
:1021800002210248FEF751FE08BD0000000C01408C
:1021900030B51A4800684FF47A72B0FBF2F1B1F131
:1021A000807F01D301201DE021F07F40401E4FF0D1
:1021B000E022506150170F22002807DA13071D0E86
:1021C0000F4B00F00F04241F1D5503E013071C0ED6
:1021D0000C4B1C5400BF00204FF0E0229061072000
:1021E0001061002008B100BFFEE74FF0E020006959
:1021F00040F001004FF0E021086130BD00000020F8
:1022000018ED00E000E400E070B505460C4600F073
:10221000CEF8D02000F0EEF800F06AF9284600F081
:10222000E9F800F065F9204600F0E4F800F060F904
:1022300000F0D2F870BD2DE9F04107460C46154676
:1022400000F0B5F8D02000F0D5F800F051F938468C
:1022500000F0D0F800F04CF900F0A9F8D12000F01F
:10226000C9F800F045F9002606E0012000F016F953
:102270002070641C701CC6B2681EB042F5DC0020E1
:1022800000F00CF9207000F0A7F8BDE8F08170B5FF
:102290000024002500BF06E0002500E06D1CB5F518
:1022A0007A7FFBDB641CB4F57A7FF5DB00216B20C1
:1022B000FFF7AAFF07211920FFF7A6FF06211A2022
:1022C000FFF7A2FF00211C20FFF79EFF18211B2013
:1022D000FFF79AFF70BD08B5002000900122694603
:1022E0007520FFF7A8FF9DF80000682804D0264855
:1022F00003F070FC002008BD9DF8001023A003F03F
:1023000069FC0120F7E71CB50446062269463B201C
:10231000FFF791FF9DF801009DF8001040EA0120B1
:1023200000B220809DF803009DF8021040EA0120D1
:1023300000B260809DF805009DF8041040EA01207D
:1023400000B2A0801CBD1CB504460622694643208D
:10235000FFF771FF9DF801009DF8001040EA012091
:1023600000B220809DF803009DF8021040EA012091
:1023700000B260809DF805009DF8041040EA01203D
:1023800000B2A0801CBD0000589B00084D5055367F
:10239000303530204944203D2025640D0A000000DE
:1023A000002001E0411CC8B20A28FBDB704710B5D1
:1023B00080207049086040200860FFF7F1FF80200E
:1023C0006C49091D0860FFF7EBFF40206949091DB2
:1023D0000860FFF7E5FF10BD10B580206549091DB5
:1023E00008604020091F0860FFF7DAFF802061497C
:1023F000086010BD70B5044640205E49091D0860A4
:10240000002520E004F0800018B1802059490860C0
:1024100003E080205749091D0860FFF7C1FF4020F5
:1024200054490860FFF7BCFF40205249091D08606D
:10243000072D02D18020091F08606006040EFFF7F7
:10244000AFFF681CC5B2082DDCDB70BD10B5802065
:102450004849091D0860FFF7A3FF4020454908606F
:10246000FFF79EFF40204349091D0860FFF798FFD2
:1024700080204049086010BD10B580203D490860AB
:10248000FFF78EFF40203B490860FFF789FF40209F
:102490003849091D0860FFF783FF10BD70B5054678
:1024A00040203449091D08600024002616E0402021
:1024B00030490860FFF774FF6006040E2D480838A5
:1024C000006800F0800008B144F001044020294970
:1024D000091D0860FFF764FF701CC6B2082EE6DB1A
:1024E00015B9FFF7C9FF01E0FFF7B0FF204670BD47
:1024F00010B580201F490860FFF752FF40201D499A
:102500000860FFF74DFF1B480838006800F08000A6
:1025100008B1012400E0002440201649091D08608C
:10252000FFF73EFF204610BD08B501210820FEF749
:10253000F1FEC020ADF8000003208DF80200142049
:102540008DF8030069460B481038FEF7C1FBFFF712
:1025500043FF08BD70B50446FFF7E6FFFFF727FF0E
:102560002046FFF747FFFFF7C3FF0546FFF734FF9D
:10257000284670BD100C014000B585B00121042033
:10258000FEF7C8FE01218803FEF7C4FE4FF4007079
:10259000ADF8100018208DF8130003208DF81200FC
:1025A00004A92248FEF794FB4FF48060ADF81000B8
:1025B00004208DF8130004A91C48FEF789FB4FF492
:1025C000E13000900020ADF80400ADF80600ADF851
:1025D0000800ADF80C000C20ADF80A00694614485C
:1025E000FFF769F901211248FFF7F1F905B000BDC5
:1025F00070B504460D46E1B20D48FFF755FA00BF2D
:1026000080210B48FFF7BEFA0028F9D0204670BDA4
:1026100010B5044600BF20210548FFF7B3FA002893
:10262000F9D00348FFF744FA10BD0000000801404C
:10263000003801402DE9F04180460C4610480078F2
:1026400020B901F0D7F801200D4908702512E6B233
:10265000A5F1A101C1EB011202EB411106EB410111
:10266000A1390802C11700EB5171CF100548391884
:102670002022404601F06CFA0020BDE8F081000005
:102680007C0000200030180001B502E00098401ED8
:10269000009000980028F9D108BD08B501216020FC
:1026A000FEF738FE03208DF8020018208DF8030095
:1026B0004FF48040ADF800006946FE48FEF708FB85
:1026C0004FF40040ADF800006946FA48FEF700FB01
:1026D0000120ADF800006946F648FEF7F9FA02203D
:1026E000ADF800006946F348FEF7F2FA8020ADF835
:1026F00000006946F048FEF7EBFA4FF48070ADF841
:1027000000006946EC48FEF7E3FA4FF40070ADF8BC
:1027100000006946E848FEF7DBFA4FF48060ADF848
:1027200000006946E448FEF7D3FA4FF40060ADF8C4
:1027300000006946E048FEF7CBFA4FF48050ADF850
:1027400000006946DC48FEF7C3FA4FF40050ADF8CC
:1027500000006946D848FEF7BBFA4FF48040ADF858
:1027600000006946D448FEF7B3FA4FF40040ADF8D4
:1027700000006946D048FEF7ABFA4FF48070ADF820
:1027800000006946CB48FEF7A3FA4FF40070ADF89D
:1027900000006946C748FEF79BFA4FF48060ADF829
:1027A00000006946C348FEF793FA03208DF8020043
:1027B00018208DF803001020ADF800006946BD48D0
:1027C000FEF786FA2020ADF800006946B948FEF70A
:1027D0007FFA8020ADF800006946B648FEF778FA27
:1027E0004FF40060ADF800006946B248FEF770FA99
:1027F00010208DF8030003208DF802000220ADF8B0
:1028000000006946AC48FEF763FA10208DF803001B
:1028100003208DF802004FF48050ADF800006946A7
:10282000A448FEF755FA08BD00B597B0012108028B
:10283000FEF763FD012001900420039080060790BD
:1028400000200290049005900690089009900820BE
:102850000A9010200B9000200C900E900F9010907A
:102860004FF480501190002012901390149001A802
:102870001590169008A8FDF711FF01210020FEF722
:1028800075F817B000BD10B5CF2003F099F90020FE
:1028900003F09AF9812003F097F9302003F094F9BE
:1028A000ED2003F08DF9642003F08EF9032003F08E
:1028B0008BF9122003F088F9812003F085F9E820D4
:1028C00003F07EF9852003F07FF9102003F07CF9F6
:1028D000782003F079F9CB2003F072F9392003F066
:1028E00073F92C2003F070F9002003F06DF9342007
:1028F00003F06AF9022003F067F9F72003F060F9AA
:10290000202003F061F9EA2003F05AF9002003F0D7
:102910005BF9002003F058F9B12003F051F90020D1
:1029200003F052F91B2003F04FF9B62003F048F9E9
:102930000A2003F049F9A22003F046F9C02003F071
:102940003FF9352003F040F9C12003F039F9112097
:1029500003F03AF9C52003F033F9452003F034F9C8
:10296000452003F031F9C72003F02AF9A22003F033
:102970002BF9F22003F024F9002003F025F926209A
:1029800003F01EF9012003F01FF9E02003F018F90D
:102990000F2003F019F9262003F016F9242003F084
:1029A00013F90B2003F010F90E2003F00DF90920A4
:1029B00003F00AF9542003F007F9A82003F004F902
:1029C000462003F001F90C2003F0FEF8172003F075
:1029D000FBF8092003F0F8F80F2003F0F5F80720C2
:1029E00003F0F2F8002003F0EFF8E12003F0E8F83C
:1029F000002003F0E9F8192003F0E6F81B2003F0AB
:102A0000E3F8042003F0E0F8102003F0DDF80720DD
:102A100003F0DAF82A2003F0D7F8472003F0D4F8BF
:102A2000392003F0D1F8032003F0CEF8062003F09C
:102A3000CBF8062003F0C8F8302003F0C5F83820A2
:102A400003F0C2F80F2003F0BFF8362003F0B8F807
:102A5000C82003F0B9F82A2003F0B2F8002003F0F0
:102A6000B3F8002003F0B0F8002003F0ADF8EF2039
:102A700003F0AAF82B2003F0A3F8002003F0A4F839
:102A8000002003F0A1F8012003F09EF83F2003F09E
:102A90009BF83A2003F094F8552003F095F81120A4
:102AA00003F08EF80548FFF7EFFD292003F088F8C2
:102AB00010BD00000014014000180140FCBF0200DE
:102AC00010B50446072C00DD10BDFE4804702046FA
:102AD00004EBD0714910A4EB410139B9F020FA4957
:102AE00008804FF4A070F949088006E04FF4A07008
:102AF000F5490880F020F5490880362003F060F899
:102B0000082141EA441003F05FF82A2003F058F846
:102B1000002003F059F8002003F056F8EA4909882C
:102B2000491EC1F3072003F04FF8E7490978491E11
:102B3000C8B203F049F82B2003F042F8002003F05C
:102B400043F8002003F040F8E0490988491EC1F32A
:102B5000072003F039F8DD490978491EC8B203F0AF
:102B600033F82C2003F02CF800BFADE710B502219C
:102B7000D748FEF75CF940F6FF20FFF785FD0221FC
:102B8000D348FEF752F940F6FF20FFF77DFD10BD58
:102B900010B504462CB14FF48051CE48FEF747F9EA
:102BA00004E04FF48051CB48FEF73FF910BD10B55B
:102BB000FFF773FDFFF738FE0120FFF7E9FFFFF78E
:102BC000D5FFFFF760FEBF480078FFF779FF10BD23
:102BD0002DE9F04104460D4616461F462A2002F014
:102BE000EFFF201202F0F0FFE0B202F0EDFFA119BA
:102BF000491EC1F30F2002F0E7FFA119491EC8B218
:102C000002F0E2FF2B2002F0DBFF281202F0DCFFD3
:102C1000E8B202F0D9FFE919491EC1F30F2002F012
:102C2000D3FFE919491EC8B202F0CEFFBDE8F0811A
:102C300070B504460D4601231A4629462046FFF783
:102C4000C7FF70BD70B504460D4600262C2002F06B
:102C5000B7FF00BF03E0284602F0B6FF761CA6428D
:102C6000F9D370BD2DE9F04106460F4614461D46C6
:102C70002B46224639463046FFF7AAFF04FB05F0F3
:102C800095490988FFF7DEFFBDE8F08170B505467C
:102C90000C468D48008885420CDA8C4800888442B6
:102CA00008DA21462846FFF7C3FF8C480188012037
:102CB000FFF7C8FF70BD70B50024002500262E2048
:102CC00002F07EFF02F076FF044602F073FF044636
:102CD00002F070FF064602F06DFF0546E012C002EA
:102CE000A91240EA411040EAE62070BD70B50446E2
:102CF0000D4629462046FFF79BFFFFF7DCFF0646FF
:102D0000304670BD2DE9FF4F83B081464FF0000A79
:102D1000D3460598A0EB090504990698461ACDF804
:102D2000049004980090002D01DD012705E00DB905
:102D3000002702E04FF0FF376D42002E02DD4FF01A
:102D4000010806E016B94FF0000802E04FF0FF3826
:102D50007642B54201DD2C4600E034460020029068
:102D600019E0DDE90010FFF791FFAA44B344A24542
:102D700005DDAAEB040A0198384480B20190A3450E
:102D800005DDABEB040B0098404480B20090029844
:102D9000401C80B20290611C02988842E1DD07B0BD
:102DA000BDE8F08F2DE9F04104460D4616461F465A
:102DB000DDF81880B8F1000F0CD03B4632462946AA
:102DC0002046FFF705FF06FB07F044490988FFF797
:102DD00039FF27E0A019401E82B22B462946204623
:102DE000FFF790FFE819401E83B2A019401E82B27F
:102DF000E819401E81B22046FFF784FFE819401E03
:102E000083B2224629462046FFF77CFFE919491E76
:102E10008BB2A119491E8AB2A119491E88B229464E
:102E2000FFF770FFBDE8F0812DE9F05F05460E4623
:102E300091469B4600240FFA89F70320A0EB490036
:102E40000FFA80FA97E0BBF1000F50D0A0464BE09C
:102E500006EB080291B22A1990B2FFF717FF06EBB2
:102E6000080291B22A1B90B2FFF710FF321991B2FB
:102E7000A5EB080290B2FFF709FF321B91B2A5EB58
:102E8000080290B2FFF702FFA6EB080291B22A1BDC
:102E900090B2FFF7FBFEA6EB080291B22A1990B29E
:102EA000FFF7F4FE321B91B205EB080290B2FFF778
:102EB000EDFE321991B205EB080290B2FFF7E6FE83
:102EC0000EE000008400002080000020820000202E
:102ED00000180140001401408E0000208C000020EA
:102EE00008F101000FFA80F8B845B1DD2FE0F219C2
:102EF00091B22A1990B2FFF7C9FEF21991B22A1BBA
:102F000090B2FFF7C3FE321991B2EA1B90B2FFF7FD
:102F1000BDFE321B91B2EA1B90B2FFF7B7FEF21B67
:102F200091B22A1B90B2FFF7B1FEF21B91B22A199F
:102F300090B2FFF7ABFE321B91B2EA1990B2FFF7E5
:102F4000A5FE321991B2EA1990B2FFF79FFE601CFC
:102F500004B2BAF1000F05DAA000801D50440FFA48
:102F600080FA07E0E01B80000A3050440FFA80FA34
:102F7000781E07B200BFBC427FF765AFBDE8F09F87
:102F80002DE9F05F804689461646A6F120001FFA1B
:102F900080FAFD4909688988FB4A1268D28801FBDA
:102FA00002F0C11700EB5171C1F3C707F648006882
:102FB00000680AFB070BF4480068C388F248006801
:102FC000828849464046FFF703FE2C2002F0F8FDB8
:102FD000002416E0002510E01BF8040080212941A0
:102FE000084020B1E948008802F0EEFD03E0E8481F
:102FF000008802F0E9FD681CC5B2082DECDB601CFE
:10300000C4B2BC42E6DBBDE8F09F70B504460D4695
:10301000002624E03046DC49096889880844DD49F7
:103020000988884205DD0026D7480068C08820440A
:1030300084B22046D4490968C9880844D649098819
:10304000884201DD002600242A7821463046FFF719
:1030500097FF6D1CCC4800688088304486B2287881
:103060000028D7D170BD70B505460E46144624E041
:103070002846C549096889880844C649098888429C
:1030800005DD0025C0480068C088304486B230465F
:10309000BD490968C9880844BF490988884201DDDB
:1030A00000250026227831462846FFF769FF641C78
:1030B000B54800688088284485B220780028D7D198
:1030C00070BD70B505460E46144624E03046AE4944
:1030D0000968C9880844B0490988884205DD002686
:1030E000A94800688088284485B22846A64909680E
:1030F00089880844A7490988884201DD00250026FF
:10310000227831462846FFF73BFF641C9E48006842
:10311000C088304486B220780028D7D170BD2DE910
:10312000F04389B080468946174610231A4649461F
:103130004046FFF74DFD2C2002F042FD394601A824
:10314000FFF778FA002422E001A810F814604FF687
:10315000FF7000EA0626012000EB440001A9085C8C
:10316000064300250FE04FF400402841304020B1D5
:103170008648008802F028FD03E08548008802F0B8
:1031800023FD681CC5B2102DEDDB601CC4B2102CF1
:10319000DADB09B0BDE8F0832DE9F04105460F46C2
:1031A00014461FE0284610307A490988884203DD1A
:1031B000002507F1100087B238461030764909889B
:1031C000884201DD002500272688300200EB2620FA
:1031D00086B2324639462846FFF7A1FF05F11000B6
:1031E00085B2A41C20780028DCD1BDE8F0812DE94F
:1031F000F04105460C46002648E020787E2825DC74
:1032000030466149096889880844624909888842CA
:1032100005DD00265C480068C088284485B2284641
:1032200059490968C98808445B490988884201DD11
:1032300000260025227829463046FFF7A1FE524895
:1032400000688088304486B2641C1FE0304610302D
:1032500050490988884203DD002605F1100085B237
:10326000284610304C490988884201DD0026002597
:103270002788380200EB272087B23A462946304695
:10328000FFF74DFF06F1100086B2A41C207800283D
:10329000B3D1BDE8F0812DE9F04105460E46144654
:1032A00048E020787E2825DC284637490968898847
:1032B000084438490988884205DD002532480068FD
:1032C000C088304486B230462F490968C98808440E
:1032D00031490988884201DD0025002622783146DF
:1032E0002846FFF74DFE284800688088284485B2AC
:1032F000641C1FE02846103026490988884203DDF7
:10330000002506F1100086B23046103022490988A7
:10331000884201DD002500262788380200EB27209F
:1033200087B23A4631462846FFF7F9FE05F110000C
:1033300085B2A41C20780028B3D1BDE8F0812DE926
:10334000F04106460D46144636E028461030124934
:103350000988884203DD002506F1100086B2304658
:1033600010300C490988884201DD002600252078AC
:103370007E2813DC227829463046FFF701FE641CC4
:1033800005F1100085B217E0880000208C000020B5
:103390008E00002080000020820000202788380254
:1033A00000EB272087B23A4629463046FFF7B7FEA2
:1033B00005F1100085B2A41C20780028C5D1BDE815
:1033C000F0812DE9FC4F0C461E464FEA004A9AFB5D
:1033D000F2FA0AF1010ACDF804A04FEA044A9AFB76
:1033E000F6FA0AF1010ACDF800A04FF000092028F2
:1033F00001DBBDE8FC8F00FB04FABAF1000F00D13D
:10340000F7E700FB04FABAF5806F00DBF1E702FB97
:1034100006FABAF1000F00D1EBE702FB06FABAF5A3
:10342000804F00DBE5E7EB4BDDF834A0BAF1000F8D
:103430002BD100211FE0002517E0DDF82CA01AF8A1
:1034400001A04FF0800B4BFA05FB0AEA0B0ABAF118
:10345000000F02D04FF0010A01E04FF0000A03F81C
:1034600001AB05F1010A1FFA8AF5082DE5DB01F130
:10347000010A1FFA8AF104FB00FA4FEAEA7B0AEB21
:103480005B7BB1EBEB0FD6DB2AE000211FE00025D0
:1034900017E0DDF82CA01AF801A04FF0800B4BFAD2
:1034A00005FB0AEA0B0ABAF1000F02D04FF0010A3D
:1034B00001E04FF0000A03F801AB05F1010A1FFA21
:1034C0008AF5082DE5DB01F1010A1FFA8AF104FBF8
:1034D00000FA4FEAEA7B0AEB5B7BB1EBEB0FD6DB42
:1034E000BC4BBD4F4FF0000C1AE04FF0000A4FEA02
:1034F000194B00FB0B3ED0460AE00EEB1A4B9BF833
:1035000000B007F808B0DDF804B0DA4408F10108AB
:103510009045F2D3DDF800B0D94417440CF1010C0A
:10352000B445E2D3DFF8B0A2CDF830A0DDF830A08A
:103530000AF1010ACDF830A000BF5AE72DE9F05F8B
:1035400081468A4614461D46DDE90A6B0027B846C7
:103550002B46224651464846FFF73AFB2C2002F004
:103560002FFB00BF14E04FF000080EE016F8011B1F
:10357000594504D19948008802F026FB03E0984899
:10358000008802F021FB08F10108A045EED37F1C62
:10359000AF42E8D3BDE8F09F2DE9F04F8FB006466B
:1035A000884614469946DDE9185B274669E03046AF
:1035B00038448C490988884204DD002608EB09005C
:1035C0001FFA80F84046484487490988884201DD4F
:1035D0000026B0462878802825DD2746B5F800A0CB
:1035E0004FEA0A2000EB2A201FFA80FA514605A86C
:1035F000FFF720F8012105AA0E984B46CDE90020DF
:1036000002913A4610210846FFF7DBFE72484B460E
:103610003A464146CDE9000B3046FFF78FFFF019DF
:1036200086B2AD1C2DE0204604EBD071C1F34F07EC
:1036300028782038C0B20D9000236C48C288DDE99C
:103640000D015043694A92885043C217049000EB21
:103650005270664A126802EBE0008DE80B004B46A0
:103660003A4618211020FFF7ACFE5B484B463A461D
:103670004146CDE9000B3046FFF760FFF01986B2F6
:103680006D1C2878002892D10FB0BDE8F08F2DE98D
:10369000F04F8FB080460E4614461F46DDE9185A9B
:1036A0000E946BE0304620444E490988884204DD80
:1036B000002608EB04001FFA80F8404638444A49C7
:1036C0000988884201DD0026B0462878802825DD5B
:1036D0000E94B5F800904FEA092000EB29201FFA5C
:1036E00080F9494604A8FEF7A5FF012104AA0D9818
:1036F0003B46CDE900200291102108460E9AFFF7C3
:1037000060FE35483B46CDE9000A314640460E9AF8
:10371000FFF714FFF01986B2AD1C2FE0204604EB32
:10372000D071C1F34F010E9128782038C0B20C90AF
:1037300000232E48C288DDE90C0150432B4A9288B1
:1037400000FB02FB4FEAEB700BEB5070274A12684C
:1037500002EBE0008DE80B003B46182110200E9A8A
:10376000FFF72FFE1C483B46CDE9000A3146404694
:103770000E9AFFF7E3FEF01986B26D1C2878002838
:1037800090D10FB0BDE8F08F194908607047184814
:1037900000687047124A1080104A11807047104A22
:1037A000128802800D4A12880A8070470C490880EE
:1037B00070470A490880704770B50446FFF7E7FF75
:1037C000C5882B460748028821460020FFF74AFAA1
:1037D00070BD000026420020260200208E0000203E
:1037E0008C00002080000020820000206C0000205F
:1037F0008800002000B587B001210803FDF78AFD8D
:103800000121D420FDF786FD0120ADF8040003203E
:103810008DF8060010208DF8070001A9FE48FDF77D
:1038200057FA2020ADF8040018208DF8070001A9F0
:10383000FA48FDF74DFA4020ADF8040001A9F74819
:10384000FDF746FA8020ADF8040001A9F348FDF722
:103850003FFA0121F048FDF7E8FA0020ADF8080032
:103860004FF48270ADF80A000020ADF80C00022081
:10387000ADF80E000120ADF810004002ADF81200C6
:103880000820ADF814000020ADF816000720ADF8B0
:10389000180002A9E248FDF76BFE0121E048FDF7A0
:1038A0000CFF07B000BD10B504462146DDA002F0B4
:1038B00091F9002010BD10B504464FF48050E54941
:1038C00008600AE0E3490868411EE24A116020B935
:1038D0000020FFF7E8FFC0B210BD0221D048FDF77D
:1038E00070FF0028EED02146CD48FDF717FF4FF4BA
:1038F0008050D84908600AE0D6490868411ED54A78
:10390000116020B90120FFF7CEFFC0B2E4E701212A
:10391000C348FDF756FF0028EED0C148FDF700FF71
:10392000C0B2D9E710B500240121BB48FDF77FFAEA
:103930000520FFF7C0FF00BFFF20FFF7BCFF0446D4
:1039400004F001000028F7D10121B348FDF76DFA1A
:1039500010BD10B50121B048FDF769FA0620FFF748
:10396000AAFF0121AC48FDF760FA10BD10B504466E
:10397000FFF7EFFFFFF7D6FF0121A748FDF757FA42
:103980002020FFF798FFC4F30740FFF794FFC4F32C
:103990000720FFF790FFE0B2FFF78DFF01219E485F
:1039A000FDF743FAFFF7BEFF10BD10B5FFF7D1FFDB
:1039B00001219948FDF73BFAC720FFF77CFF012161
:1039C0009548FDF732FAFFF7ADFF10BD70B505461B
:1039D0000C461646FFF7BDFF01218F48FDF727FA79
:1039E0000220FFF768FFC4F30740FFF764FFC4F34A
:1039F0000720FFF760FFE0B2FFF75DFFB6F5807FBD
:103A000004DD4FF4807694A002F0E4F803E0287817
:103A1000FFF751FF6D1C301EA6F101018EB2F6D1E9
:103A200001217D48FDF701FAFFF77CFF70BD2DE90C
:103A3000F05F07460E4614464FF00008C146C246E6
:103A40000025AB4606F0FF0ACAF10000C5B22046C9
:103A5000E11704EB1161C1F30728E11704EB1161D1
:103A60000912A4EB012101F0FF09BAF1000F20D1E6
:103A7000B8F1000F05D1224631463846FFF7A6FFC0
:103A800064E009E04FF4807231463846FFF79EFF4C
:103A900006F5807607F58077B8F10000A8F10101FE
:103AA00001F0FF08EED14A4631463846FFF78EFF57
:103AB0004CE0B8F1000F18D1A94510DDA9EB0500C5
:103AC00000F0FF0B2A4631463846FFF77FFF2E44B1
:103AD0002F445A4631463846FFF778FF36E02246F3
:103AE00031463846FFF772FF30E0601B84B2204653
:103AF000E11704EB1161C1F30728E11704EB116131
:103B00000912A4EB012101F0FF092A46314638468B
:103B1000FFF75CFF2E442F4409E04FF480723146DA
:103B20003846FFF753FF06F5807607F58077B8F142
:103B30000000A8F1010101F0FF08EED1B9F1000F7A
:103B400004D04A4631463846FFF740FFBDE8F09FB3
:103B500070B505460C46164601212F48FDF767F95A
:103B60000320FFF7A8FEC4F30740FFF7A4FEC4F349
:103B70000720FFF7A0FEE0B2FFF79DFE04E0FF2064
:103B8000FFF799FE28706D1C301EA6F101018EB260
:103B9000F5D101212048FDF748F970BD2DE9F0412C
:103BA000002400250026002701211B48FDF73FF9CE
:103BB0009F20FFF780FEFF20FFF77DFE0546FF20D8
:103BC000FFF779FE0646FF20FFF775FE0746012145
:103BD0001148FDF72AF9280440EA062040EA0704C4
:103BE0002046BDE8F08110B5002401210A48FDF708
:103BF0001EF9AB20FFF75FFEFF20FFF75CFEFF2002
:103C0000FFF759FEFF20FFF756FEFF20FFF753FE98
:103C100004460121004839E000100140000801403D
:103C2000003001403C3C2D464C4153482D455252FA
:103C30004F522D3E3E2053504920B5C8B4FDB3AC81
:103C4000CAB1216572726F72436F6465203D202591
:103C5000640A0000900000203C3C2D464C41534833
:103C60002D4552524F522D3E3E205350495F464CF7
:103C70004153485F50616765577269746520746F7E
:103C80006F206C61726765210A000000FDF7CDF8B6
:103C9000204610BD10B5044601213248FDF7C7F893
:103CA0000320FFF708FEC4F30740FFF704FEC4F348
:103CB0000720FFF700FEE0B2FFF7FDFD10BD10B5D5
:103CC000FF20FFF7F8FD10BD10B504464FF48050FB
:103CD0002549086009E024490868411E224A11600C
:103CE00018B90220FFF7DFFD10BD02211F48FDF7C4
:103CF00068FD0028EFD021461C48FDF70FFD4FF46A
:103D000080501949086009E017490868411E164AA1
:103D1000116018B90320FFF7C6FDE5E7012113483C
:103D2000FDF74FFD0028EFD01048FDF7F9FCDBE769
:103D300010B501210B48FDF77AF8B920FFF7BBFD5C
:103D400001210848FDF771F810BD10B501210548A3
:103D5000FDF76DF8AB20FFF7AEFD01210148FDF73F
:103D600064F810BD001001409000002000300140B8
:103D700008B501210820FDF7CDFA4FF40050ADF849
:103D8000000010208DF8030003208DF80200694622
:103D90005648FCF79DFF08BD10B5FFF7E9FF4FF44B
:103DA00000515248FDF741F810BD08B54FF40050DE
:103DB000ADF8000048208DF8030069464B48FCF739
:103DC00087FF08BD08B54FF40050ADF80000102083
:103DD0008DF8030003208DF8020069464348FCF784
:103DE00077FF08BD70B50025002427E000BF4FF421
:103DF00000513E48FCF7FFFF0028F8D0282000F0D3
:103E000089F84FF400513948FCF7F5FF01280ED12D
:103E100000BF4FF400513548FCF7EDFF0128F8D002
:103E2000C4F1070101208840C0B2054304E0C4F199
:103E30000701012088408543601CC4B2082CD5DBF3
:103E4000284670BD10B50446FFF7BCFF4FF4005183
:103E50002648FCF7ECFF44F2506000F05BF84FF4AA
:103E600000512248FCF7E1FF1E2000F053F8FFF755
:103E70009CFF4FF400511D48FCF7BDFF88BB00BFFD
:103E80004FF400511948FCF7B6FF0028F8D000BFE6
:103E90004FF400511548FCF7AEFF0128F8D0FFF7AA
:103EA000A1FF2070FFF79EFF6070FFF79BFFA070DF
:103EB000FFF798FFE070FFF795FF2071FFF782FF93
:103EC0004FF400510948FCF7B0FF207861780844AE
:103ED000A1780844E17808442179884202D1012080
:103EE00010BD01E00020FBE70020F9E7000C0140D5
:103EF0001B48006840F0807019490860002019498B
:103F000048600846006840F00100086070471548A6
:103F10004068704731B50024FFF7EAFF1248006897
:103F20001249B0FBF1F0009900FB01F500BFFFF76B
:103F3000EEFF034611E0FFF7EAFF02469A420CD07B
:103F40009A4202D9D01A044403E0C3F1FF3010446E
:103F500004441346AC4200D300E0ECE700BF38BD98
:103F6000FCED00E0001000E00000002040420F00E7
:103F700008B54FF4C060FCF7E7F906208DF80000A3
:103F800001208DF801008DF802008DF803006846CD
:103F9000FCF7DFF928208DF800006846FCF7D9F916
:103FA00008BD0EB501210520FDF7B4F9FFF7E0FFCC
:103FB0000120ADF8080004208DF80B0002A91A4872
:103FC000FCF786FE00210846FCF798FF01200090D0
:103FD00000208DF8040008208DF8050001208DF8E0
:103FE00006006846FCF78EFA4FF40050ADF8080062
:103FF00004208DF80B0002A90C48FCF769FE0D2186
:104000000220FCF77BFF4FF40050009000208DF859
:1040100004000C208DF8050001208DF8060068468C
:10402000FCF770FA0EBD00000008014000100140CE
:1040300008B501210420FDF76DF94FF48070ADF84B
:10404000000010208DF8030003208DF8020069465F
:104050000448FCF73DFE4FF480710248FCF7E7FE90
:1040600008BD000000080140F0B58DB004463022C4
:10407000704901A801F098FA6069451E642195FB1A
:10408000F1F12846EA1705EB9272C1EBA2014FF459
:10409000C87295FBF2F28F186069C11700EB91713D
:1040A0008910A0EB810191B96422616991FBF2F35F
:1040B00002FB131131B99200616991FBF2F302FB2B
:1040C000131121B92169022901DD012600E0002632
:1040D00040F26D1005FB00712069401E01AA52F8E4
:1040E00020000844E16808440644072096FBF0F1EC
:1040F00000FB1160A0610DB0F0BD10B5014608696C
:10410000801E0861002805DC08690C3008614869D8
:10411000401E48616423486990FBF3F04A69D31755
:1041200002EB9373C0EBA3004FF4C87492FBF4F35B
:10413000034440F26F14086960430C2490FBF4F0D0
:104140001844CB68034440F26D1402FB04303A4B30
:10415000C01A00EB40008B6803EBC000C0EB0010FE
:104160004B6803EB8000C0EB00100B6803EB800092
:1041700010BD2DE9F04107460C463048B7FBF0F67C
:10418000B7FBF0F100FB11784FF4616098FBF0F0A1
:10419000A0604FF4616098FBF0F100FB11803C21BE
:1041A00090FBF1F060604FF4616098FBF0F100FB70
:1041B00011803C2190FBF1F201FB1200206040F2E3
:1041C000B27509E005F0030010B94FF4B77001E0D3
:1041D00040F26D10361A6D1C05F0030010B94FF453
:1041E000B77001E040F26D10B042EBDD65616069CF
:1041F000C11700EB91718910A0EB810111B91D204D
:104200000F494860012505E0681E0D4951F820005E
:10421000361A6D1C681E0A4951F82000B042F3DDC1
:104220001C2048602561701CE0602046FFF71CFFE1
:10423000BDE8F081E89A00088BFA0A00805101007D
:104240009400002008B54FF4C060FCF77DF803200F
:104250008DF8000001208DF8010000208DF802008B
:1042600001208DF803006846FCF773F808BD10B50F
:1042700001214FF0C050FDF75AF80120FCF781FEF4
:10428000FCF7D0F80120FCF7B2FF00BF4120FCF79B
:1042900016FF0028FAD04FF48070FCF7C4FF01200D
:1042A000FCF7C7FFFDF7FFF8FDF7F4F8012108461A
:1042B000FDF794F8FDF7EEF847F6FF70FDF7C4F848
:1042C000FDF7E8F810BD70B50446FFF7D0FFFDF725
:1042D000E1F82046FFF7C8FE2046FFF70EFFA0F5E5
:1042E000E1452846FDF7A3F8FDF7D4F870BD10B5F9
:1042F00004460420FCF7CBF84AF2A55188420ED0C0
:10430000B7A001F067FCBEA001F064FC2046FFF7F7
:10431000DAFF4AF2A5510420FCF7ADF82AE00121AA
:104320004FF0C050FDF703F80120FCF72AFE0120F2
:10433000FCF776FF00BF6120FCF7C1FE0028FAD031
:104340007B20FCF7BCFE18B1B3A001F043FC06E0F3
:104350007A20FCF7B4FE10B1B8A001F03BFCC0A07D
:1043600001F038FCFDF79FF801210846FDF736F80B
:10437000FDF790F8FDF70CF810BD38B504460020A5
:1043800000900025BEA001F025FC00BFCA4801F046
:1043900021FC6946C9A001F03DF940F2B2710098D4
:1043A000884204D340F2F6710098884204D9C4A030
:1043B000009901F00FFC06E0CAA0009901F00AFC88
:1043C0000098606100E0E1E700BF00BFCB4801F06A
:1043D00001FC6946B9A001F01DF9009810B10098E0
:1043E0000C2804D9B6A0009901F0F4FB06E0C4A0A3
:1043F000009901F0EFFB0098206100E0E6E700BFC4
:1044000020690D2832D2DFE800F0310714080F09C7
:10441000100A0B110C120D0000BF00BF00BF00BF3F
:1044200000BF00BF1F2521E000BF00BF00BF1E2549
:104430001CE06069C11700EB91718910A0EB81014C
:1044400091B96422616991FBF2F302FB131131B956
:104450009200616991FBF2F302FB131121B921690A
:10446000022901DD1D2500E01C2500BF00BF00BFA3
:104470002946A94801F0AEFB694690A001F0CAF8B0
:10448000009810B10098A84204D98DA0009901F0BD
:10449000A1FB06E0A1A0009901F09CFB0098E06060
:1044A00000E0E5E700BF00BFA24801F093FB6946CA
:1044B00082A001F0AFF80098172804D980A00099D5
:1044C00001F088FB06E09CA0009901F083FB0098B6
:1044D000A06000E0E8E700BF00BF9D4801F07AFB64
:1044E000694676A001F096F800983B2804D974A09C
:1044F000009901F06FFB06E096A0009901F06AFBBD
:104500000098606000E0E8E700BF00BF974801F056
:1045100061FB694669A001F07DF800983B2804D949
:1045200067A0009901F056FB06E091A0009901F008
:1045300051FB0098206000E0E8E700BF38BDF0B50F
:10454000B3B005460C4605F5E14621463046FFF777
:1045500010FEE06800908CA101A8D4E9043201F0BB
:1045600049FBFFF714F9C0884004070C01A938463D
:10457000FEF73DFE8A49A06951F8202089A101A8D3
:1045800001F038FBFFF703F9C08800EB400087B269
:1045900001A93846FEF72BFE2068009087A101A8EC
:1045A000D4E9013201F026FBFFF7F1F8C08880045E
:1045B000070C01A93846FEF71AFE33B0F0BD0446D9
:1045C0000CE085480068012808D1FCF727FF054664
:1045D0002146FFF7B4FF00207F490860F1E70000A3
:1045E0000D0A0D0A20525443206E6F7420796574B1
:1045F00020636F6E666967757265642E2E2E2E00BD
:104600000D0A0D0A2052544320636F6E6669677568
:104610007265642E2E2E2E000D0A0D0A20506F7723
:104620006572204F6E205265736574206F636375E9
:10463000727265642E2E2E2E000000000D0A0D0AE7
:104640002045787465726E616C20526573657420C4
:104650006F636375727265642E2E2E2E000000004B
:104660000D0A204E6F206E65656420746F20636FA5
:104670006E666967757265205254432E2E2E2E0089
:104680000D0A3D3D3D3D3D3D3D3D3D3D3D3D3D3DBD
:104690003D3D3D3D3D3D3D3D3D3D3DC9E8D6C3CA67
:1046A000B1BCE43D3D3D3D3D3D3D3D3D3D3D3D3DA0
:1046B0003D3D3D3D3D000000289C00082564000074
:1046C0000D0A20C4FACAE4C8EBB5C4CAFDD7D6CADD
:1046D000C73A2564A3ACB2BBB7FBBACFD2AAC7F323
:1046E000000000000A0D2020C4EAB7DDB1BBC9E814
:1046F000D6C3CEAA3A2025640A0D0000A09B00086C
:104700000A0D2020D4C2B7DDB1BBC9E8D6C3CEAAFA
:104710003A2025640A0D0000F89C00080A0D2020AC
:10472000C8D5C6DAB1BBC9E8D6C3CEAA3A2025643B
:104730000A0D0000E49B00080A0D2020CAB1D6D360
:10474000B1BBC9E8D6C3CEAA3A2025640A0D000041
:10475000B49C00080A0D2020B7D6D6D3B1BBC9E857
:10476000D6C3CEAA3A2025640A0D0000709C00082A
:104770000A0D2020C3EBD6D3B1BBC9E8D6C3CEAA5D
:104780003A2025640A0D000020C8D5C6DA3A202553
:10479000642D25642D256420202020202020000069
:1047A000C800002020257320202020202020202049
:1047B00020202020202020202000000020CAB1BC82
:1047C000E43A202025302E32643A25302E32643AE5
:1047D00025302E3264000000C400002008B50121FD
:1047E0001420FCF797FD0120ADF8000004208DF89F
:1047F000030069461148FCF76BFA4FF40050ADF81E
:10480000000004208DF8030069460D48FCF760FAAB
:1048100008BD70B504460D4629462046FCF7EBFA64
:10482000012808D100BF29462046FCF7E4FA0128F8
:10483000F9D0012070BD0020FCE700000008014015
:104840000010014070B5054600240DE07F4850F887
:104850002410284600F0CCFE08B1012000E0002022
:1048600000B103E0601CC4B2082CEFDB00BF082CD1
:1048700051D2DFE804F0040D18222B353F472020E9
:10488000734908600120091F08600220086043E0A6
:1048900020206F49091F08600120091D08600220BF
:1048A000091F086038E020206949091F08600120BD
:1048B00008600220091D08602EE02020644908607D
:1048C000012008600220091F086025E020206049BF
:1048D00008600120091F08600220091D08601BE014
:1048E00020205B49091F08600120091D0860022083
:1048F000086011E02020564908600120086002206D
:10490000086009E020205249091F08600120086062
:104910000220086000E000BF00BF70BD10B54DA0D0
:1049200001F058F952A001F055F94FF48071484850
:104930001438FCF77AFA00BF00F05EFA0028FBD0CA
:1049400051A001F047F900BF002000F07DFA0028D7
:10495000FAD055A001F03EF900BF5AA15CA000F0CA
:1049600095FA0028F9D05CA001F034F900BF0020CE
:1049700000F0B4FA0028FAD05DA001F02BF900BFD6
:10498000052362A263A1002000F0BDFA0028F7D041
:1049900064A001F01FF900BF00F068FC0028FBD004
:1049A00067A001F017F910BD10B59CB0642103A8F1
:1049B00000F013FE6848006801280DD16748C078F0
:1049C00066498978CDE9001064484378027864A18B
:1049D00003A801F00FF903E070A103A801F00AF9A0
:1049E00003A973A001F0F6F80523002203A9012012
:1049F00000F05DFC6F480078002824D000F04BFCEC
:104A000000BF00F0EBFA0446002CFAD0042C15D1BC
:104A100069A001F0DFF800BF2AA12DA000F036FA4E
:104A20000028F9D000BF052338A23AA1002000F0E9
:104A30006AFA0028F7D068A001F0CCF800BF00F0B7
:104A400015FC0028FBD01CB010BD0000E4000020C5
:104A5000140C01400D0AD5FDD4DAC5E4D6C32045B7
:104A6000535038323636202E2E2E2E2E2E0D0A0082
:104A70000D0ACAB9C4DC2045535038323636202ED0
:104A80002E2E2E2E2E0D0A000D0AD5FDD4DAC5E4E9
:104A9000D6C3B9A4D7F7C4A3CABD20535441202E0E
:104AA0002E2E2E2E2E0D0A000D0AD5FDD4DAC1AC05
:104AB000BDD32057694669202E2E2E2E2E2E0D0A8C
:104AC0000000000037373831343034310000000046
:104AD00064787779000000000D0ABDFBD6B9B6E016
:104AE000C1ACBDD3202E2E2E2E2E2E0D0A0000007E
:104AF0000D0AD5FDD4DAC1ACBDD3205365727665FD
:104B000072202E2E2E2E2E2E0D0A00003830383018
:104B1000000000003139322E3136382E3231392E34
:104B2000313137000D0ABDF8C8EBCDB8B4ABB7A230
:104B3000CBCDC4A3CABD202E2E2E2E2E2E0D0A00A4
:104B40000D0AC5E4D6C3204553503832363620CD41
:104B5000EAB1CF0D0A000000580000200401002037
:104B60000D0A0D0AB6C1C8A14448543131B3C9B9C0
:104B7000A6210D0ACAAAB6C8CEAA25642E2564208D
:104B8000A3A5524820A3ACCEC2B6C8CEAA202564A5
:104B90002E2564A1E6200D0A000000005265616424
:104BA000204448543131204552524F52210D0A00C1
:104BB00025730000090100200D0AD5FDD4DAD6D8EE
:104BC000C1ACC8C8B5E3BACDB7FECEF1C6F7202E4A
:104BD0002E2E2E2E2E0D0A000D0AD6D8C1ACC8C816
:104BE000B5E3BACDB7FECEF1C6F7B3C9B9A60D0A83
:104BF0000000000008B54FF4A060FBF7A5FB2720DC
:104C00008DF8000002208DF8010003208DF80200CD
:104C100001208DF803006846FBF79BFB08BD00B53B
:104C200085B001218804FCF782FB01210820FCF7F4
:104C300071FB4FF48060ADF8100018208DF8130060
:104C400003208DF8120004A9FB48FCF741F84FF44B
:104C50000060ADF8100004208DF8130004A9F64898
:104C6000FCF736F84FF4E13000900020ADF8040076
:104C7000ADF80600ADF80800ADF80C000C20ADF85A
:104C80000A006946ED48FCF716FE012240F2255164
:104C9000EA48FCF7A8FE012240F22441E748FCF76D
:104CA000A2FEFFF7A7FF0121E448FCF790FE05B044
:104CB00000BD08B501210820FCF72CFB4FF48070E3
:104CC000ADF8000010208DF8030003208DF80200DD
:104CD0006946D948FBF7FCFF01210820FCF71AFBC5
:104CE0004FF40070ADF800006946D348FBF7F0FFC1
:104CF00008BD10B5FFF7DDFFFFF791FF4FF400711E
:104D0000CD48FCF792F84FF48071CB48FCF78FF850
:104D100010BD10B54FF40071C748FCF788F8C848BB
:104D2000FFF7F8F84FF40071C348FCF77EF810BDA8
:104D30002DE9F04106460C4615461F46C148B0F81D
:104D400000046FF30E00BF49A1F800043246BEA173
:104D5000BA4800F0A6FB1CB915B90120BDE8F081E6
:104D60004FF47A7107FB01F0FFF7D4F80020B54942
:104D7000B1F80014C1F30E01B24A50541146B4A068
:104D800000F028FFAF48B0F800046FF30E00AD4903
:104D9000A1F800040846B0F8000420F40040A1F88F
:104DA0000004B4B1ADB12146A64800F021FC08B121
:104DB000012000E0002040B92946A24800F018FC7C
:104DC00008B1012000E0002008B10120C6E7002062
:104DD000C4E744B121469B4800F00AFC08B1012019
:104DE000BCE70020BAE72946964800F001FC08B16C
:104DF0000120B3E70020B1E710B500244FF40071A3
:104E00008D48FCF712F893A000F0E4FE9548FFF7F8
:104E100081F815E0214694A000F0DCFE4FF4FA730F
:104E2000002297A197A0FFF783FF28B1214696A003
:104E300000F0D0FE012010BDFFF76BFF601CC4B274
:104E40000A2CE7DB0020F6E710B5044624B1012C5C
:104E50000AD0022C18D10FE040F6C41391A288A109
:104E600093A0FFF765FF10BD40F6C4138DA284A187
:104E700092A0FFF75DFFF6E740F6C41389A280A178
:104E800091A0FFF755FFEEE70020ECE730B59FB0AB
:104E900004460D462B4622468EA101A800F0AAFE2C
:104EA00041F28833002276A101A8FFF741FF1FB02D
:104EB00030BD70B5A0B004460D4616462B462246BE
:104EC00089A102A8009600F095FE4FF47A730022A3
:104ED0006BA102A8FFF72CFF20B070BD10B586B003
:104EE00004460CB1012000E00020024684A101A884
:104EF00000F080FE4FF4FA73002261A101A8FFF7D1
:104F000017FF06B010BDF0B5B9B006460F461446FF
:104F10001D46642120A800F060FB16B1012E10D1BF
:104F200007E03B467AA27BA120A8009400F062FE35
:104F300008E03B467BA277A120A8009400F05AFE2F
:104F400000E000BF00BF052D06DA20AB2A4676A19F
:104F500002A800F04FFE04E020AA78A102A800F009
:104F600049FE4FF47A6379A245A102A8FFF7E0FE5B
:104F700039B0F0BD70B5BCB004460D461646FCB164
:104F80002B46012275A11EA800F034FE324678A1FE
:104F9000684600F02FFE4FF4FA73002238A11EA8D5
:104FA000FFF7C6FE50B14FF4FA73002234A16846F1
:104FB000FFF7BEFE10B101203CB070BD0020FBE742
:104FC0002B46002265A11EA800F014FE4FF4FA73D0
:104FD00000222BA11EA8FFF7ABFEEDE710B54FF4A2
:104FE000FA73002226A166A0FFF7A2FEA0B168A175
:104FF000144800F0FDFA08B1022010BD67A1114865
:1050000000F0F6FA08B10320F7E767A10D4800F0B9
:10501000EFFA08B10420F0E70020EEE710B5002415
:105020004FF4FA73002216A155A0FFF781FE002865
:1050300000D0BFE0F0E00000000C0140004800405C
:1050400020A107002646002025730D0A000000005D
:10505000257300000D0A4154B2E2CAD42E2E2E2E22
:105060002E0D0A0080841E000D0A4154B2E2CAD4FB
:10507000B4CECAFD2025642E2E2E2E2E2E0D0A0013
:105080004F4B0000415400000D0A4154B2E2CAD413
:10509000C6F4B6AFB3C9B9A62025642E2E2E2E2E87
:1050A0002E0D0A006E6F206368616E676500000058
:1050B00041542B43574D4F44453D310041542B4300
:1050C000574D4F44453D320041542B43574D4F44BB
:1050D000453D330041542B43574A41503D222573EF
:1050E000222C22257322000041542B435753415058
:1050F0003D222573222C222573222C312C2564007D
:1051000041542B4349504D55583D25640000000043
:1051100054435000222573222C222573222C257300
:10512000000000005544500041542B434950535453
:105130004152543D25642C257300000041542B43FB
:10514000495053544152543D25730000414C52453F
:10515000415920434F4E4E454354000041542B4388
:1051600049505345525645523D25642C2573000045
:1051700041542B43495053544F3D257300000000C8
:1051800041542B434950535441545553000000009F
:105190005354415455533A320D0A0000535441546C
:1051A00055533A330D0A00005354415455533A3481
:1051B0000D0A00006EA1724800F01AFA10B144F016
:1051C000010401E024F001046EA16D4800F010FA22
:1051D00010B144F0020401E024F002046DA168481B
:1051E00000F006FA10B144F0040401E024F00404D5
:1051F0006CA1634800F0FCF910B144F0080401E030
:1052000024F008046BA15E4800F0F2F910B144F0FC
:10521000100401E024F01004204610BD2DE9F041F7
:1052200005460F464FF4FA730022AFF2AC1165A0A9
:10523000FFF77EFD66A1524800F0DAF906460EB18E
:10524000B61D02E00020BDE8F081002409E0305DD9
:105250002855285D222802D10020285503E0601C33
:10526000C4B2BC42F3DB00BF0120ECE710B54FF441
:10527000FA730022AFF2F81157A0FFF759FD08B9F1
:10528000002010BD4FF4FA7357A2AFF20C2157A0C3
:10529000FFF74EFDF5E710B55748FEF73BFE57A167
:1052A000574800F0FEF85748FEF734FE10BD2DE9D0
:1052B000F04186B007460C4615461E464FF00008E2
:1052C00047B12246AFF278214D4800F0EAF84FF09E
:1052D00001081CE0052E06DAAB1C32464AA101A8E3
:1052E00000F088FC04E0AA1C4CA101A800F082FC9C
:1052F0004FF47A7300224DA101A8FFF719FD4FF476
:105300007A7300224AA12046FFF712FD80464046EC
:1053100006B0BDE8F08170B5044600251848B0F825
:1053200000046FF30E001649A1F800040846B0F817
:10533000000420F40040A1F8000400BF1048B0F8B9
:105340000004C00B0028F9D000200D49B1F800146A
:10535000C1F30E010A4A50540CB1154605E036A1BE
:10536000074800F045F900B1054D284670BD000022
:105370002B4349505354415455533A302C000000AC
:10538000264600202B4349505354415455533A313B
:105390002C0000002B4349505354415455533A328A
:1053A0002C0000002B4349505354415455533A3379
:1053B0002C0000002B4349505354415455533A3468
:1053C0002C00000041542B4349465352000000007A
:1053D000415049502C22000041542B4349504D4F1D
:1053E00044453D31000000003E00000041542B4385
:1053F000495053454E44000040420F002B2B2B00D8
:105400000048004020A1070041542B434950534518
:105410004E443D25642C25640000000041542B437C
:10542000495053454E443D25640000003E20000095
:1054300053454E44204F4B002B4950440000000080
:10544000F0B503460D461646002729460A2E03D01E
:10545000002008702846F0BD33B9302001F8010B58
:10546000002008702846F6E7002B03DA2D2001F80B
:10547000010B5B4242F210720DE093FBF2F404B9AF
:1054800037B104F1300001F8010B04FB123301279E
:105490000A2092FBF0F2002AEFDC00200870284678
:1054A000D9E70FB470B586B006460CA8019073E03A
:1054B0000B9800785C281CD10B98401C0B9000784E
:1054C0006E2809D072280FD10D213046FCF7ECFA76
:1054D0000B98401C0B900BE00A213046FCF7E4FAD5
:1054E0000B98401C0B9003E00B98401C0B9000BFE6
:1054F0004BE00B980078252840D10B98401C0B906E
:105500000078642818D0732833D1019810C801900E
:105510000BE021783046FCF7C7FA00BF8021304607
:10552000FCF730FB0028F9D0641C20780028F0D16B
:105530000B98401C0B9020E0019820C801900A2293
:1055400002A92846FFF77CFF02AC0BE02178304629
:10555000FCF7AAFA00BF80213046FCF713FB0028B5
:10556000F9D0641C20780028F0D10B98401C0B90D7
:1055700003E00B98401C0B9000BF06E00B9810F85E
:10558000011B0B903046FCF78FFA00BF802130469C
:10559000FCF7F8FA0028F9D00B980078002887D19A
:1055A00006B070BC5DF814FB40EA01039B0703D012
:1055B00009E008C9121F08C0042AFAD203E011F852
:1055C000013B00F8013B521EF9D27047D2B201E014
:1055D00000F8012B491EFBD270470022F6E710B5F8
:1055E00013460A4604461946FFF7F0FF204610BD51
:1055F00030B505462A460B4612F8010B13F8014B4D
:1056000008B1A042F8D01CB1002802D06D1CF1E70F
:10561000284630BD0FB400B589B00BA800906A468B
:1056200003480A9900F0D0F809B05DF814FB0000B7
:105630000C0100202DE9FF5F1D464FF0FF3BD5E92F
:10564000014691465F464FF00008A9697F1C01980A
:105650008847296A824688470028F6D1BAF1FF3F79
:105660000CD024F4C064002E19DD600614D5BAF104
:105670002B0F09D0BAF12D0F0ED103E0584604B01C
:10568000BDE8F09F44F48064A9697F1C01988847B5
:10569000761E8246002E02DDBAF1300F03D0B9F13A
:1056A000000F26D032E0A969761E44F400747F1CF6
:1056B000019888478246002E05DDBAF1780F06D0A2
:1056C000BAF1580F03D0B9F1000F10D01EE0B9F1B4
:1056D000000F02D0B9F1100F18D1A969761E24F479
:1056E00000747F1C019888478246102002E0082041
:1056F00000E00A20814609E008FB0908A969761E36
:1057000044F400747F1C019888478246002E05DD12
:105710004946504600F04AF80028EDDAE969019858
:105720008847A00502D46FF00100A8E7E00725D163
:10573000600613D5600502D5C8F1000000E04046C0
:1057400029680A1D2A600968220501D5087015E03C
:10575000220701D5088011E008600FE02868011DCC
:1057600029600068210502D580F8008006E0210745
:1057700002D5A0F8008001E0C0F8008038467EE73E
:1057800030B50B46014600202022012409E021FA11
:1057900002F59D4205D303FA02F5491B04FA02F50E
:1057A0002844151EA2F10102F1DC30BD3A2800D2D6
:1057B000303820F02002412A01D3A2F1370088427C
:1057C00001D34FF0FF307047024B9361024BD3611E
:1057D00000F032B8112600081D580008064C074D8D
:1057E00006E0E06840F0010394E8070098471034B1
:1057F000AC42F6D3FAF7A0FCD09D0008F09D00085B
:10580000094910B508784C1C18B1401E0870205C7E
:1058100010BD00210720ABBE207010BD02490878E2
:10582000421C0A70704700001401002002681144F5
:105830001378016018467047D160044951610449EA
:10584000116200211161114600F00AB82D580008BC
:1058500055580008C0B24FF4F05100F097B900005D
:105860002DE9F34F8BB04FF0000801F10C000C460E
:105870004FF0010B46460DF1080A019062690121C3
:1058800001989047051E2DD0252D2CD0216A8847E0
:10589000C0B16269012101989047216A88470028B8
:1058A000F7D1411E62690198904700E0761CA1691A
:1058B0000B988847216A88470028F7D1E1690B983F
:1058C0008847DBE7A1690B9888470746A84201D1C2
:1058D000761CD3E7E1690B9888477F1C02D1B8F1A9
:1058E000000F6FD046E1002762693D4639460198B6
:1058F00090472A2804D16269012101989047012527
:10590000DFF884926269012101989047A0F130018B
:105910000A290AD24F45E5DC07EB870100EB410776
:10592000303FDFD445F01005ECE7E90601D46FF015
:1059300000476C280AD04C2814D0682815D06A2853
:105940000DD074281CD07A281AD01DE0626901217C
:10595000019890476C2802D045F0040514E045F00A
:1059600002050DE045F020050AE062690121019879
:105970009047682802D045F0080505E045F4006529
:105980006269012101989047C4E9015765283DD01B
:1059900019DC58287AD00CDC452837D004DC2528BF
:1059A00026D0412831D131E046282FD047282CD1AC
:1059B0002CE05B2877D0612828D063287CD064282D
:1059C00023D15AE0D0E06F2848D008DC66281DD0EB
:1059D00067281BD0692821D06E2816D127E07028AF
:1059E00045D0732868D0752847D078280DD14DE070
:1059F000A1690B988847054625283FF469AFE169FE
:105A00000B9888476D1C3FF46AAFB3E023466A46A3
:105A10006FF001000B99AFF300809EE045F040006D
:105A20006060A80723464FF0000236D43EE0E80746
:105A30007FF447AF2068011D21600068290501D56A
:105A400006701BE7290701D5068017E7A90703D5CC
:105A5000F117C0E9006111E706600FE745F040006B
:105A60006060A80723464FF0080216D41EE040F6F7
:105A70000E0125EA0100606016E045F0400060601C
:105A8000A80723464FF00A0207D40FE045F0400074
:105A90006060A80708D5234610226FF001000B991B
:105AA000AFF3008059E007E0234610226FF00100B9
:105AB0000B99FFF7BFFD50E04FF000094F464B46F2
:105AC000632802D05B2806D040E0E80601D401201C
:105AD000A06001273AE062690121019890475E28A1
